{
  "_format": "hh-sol-artifact-1",
  "contractName": "Permission",
  "sourceName": "contracts/Permission.sol",
  "abi": [
    {
      "inputs": [
        {
          "internalType": "address",
          "name": "resource_",
          "type": "address"
        },
        {
          "internalType": "address",
          "name": "account_",
          "type": "address"
        }
      ],
      "name": "getPermission",
      "outputs": [
        {
          "internalType": "bool",
          "name": "",
          "type": "bool"
        }
      ],
      "stateMutability": "view",
      "type": "function"
    },
    {
      "inputs": [
        {
          "internalType": "address",
          "name": "resource_",
          "type": "address"
        },
        {
          "internalType": "address",
          "name": "account_",
          "type": "address"
        },
        {
          "internalType": "bool",
          "name": "grant_",
          "type": "bool"
        }
      ],
      "name": "setPermission",
      "outputs": [],
      "stateMutability": "nonpayable",
      "type": "function"
    }
  ],
  "bytecode": "0x608060405234801561001057600080fd5b50610340806100206000396000f3fe608060405234801561001057600080fd5b50600436106100365760003560e01c8063910185dd1461003b578063aa4b826a1461006b575b600080fd5b61005560048036038101906100509190610215565b610087565b6040516100629190610270565b60405180910390f35b610085600480360381019061008091906102b7565b61011a565b005b60008060008473ffffffffffffffffffffffffffffffffffffffff1673ffffffffffffffffffffffffffffffffffffffff16815260200190815260200160002060008373ffffffffffffffffffffffffffffffffffffffff1673ffffffffffffffffffffffffffffffffffffffff16815260200190815260200160002060009054906101000a900460ff16905092915050565b806000808573ffffffffffffffffffffffffffffffffffffffff1673ffffffffffffffffffffffffffffffffffffffff16815260200190815260200160002060008473ffffffffffffffffffffffffffffffffffffffff1673ffffffffffffffffffffffffffffffffffffffff16815260200190815260200160002060006101000a81548160ff021916908315150217905550505050565b600080fd5b600073ffffffffffffffffffffffffffffffffffffffff82169050919050565b60006101e2826101b7565b9050919050565b6101f2816101d7565b81146101fd57600080fd5b50565b60008135905061020f816101e9565b92915050565b6000806040838503121561022c5761022b6101b2565b5b600061023a85828601610200565b925050602061024b85828601610200565b9150509250929050565b60008115159050919050565b61026a81610255565b82525050565b60006020820190506102856000830184610261565b92915050565b61029481610255565b811461029f57600080fd5b50565b6000813590506102b18161028b565b92915050565b6000806000606084860312156102d0576102cf6101b2565b5b60006102de86828701610200565b93505060206102ef86828701610200565b9250506040610300868287016102a2565b915050925092509256fea26469706673582212203fd474825f5524e161d891478ce2c302ed0fe76514b840735ee7467c3c40548764736f6c63430008180033",
  "linkReferences": {},
  "deployedLinkReferences": {}
}